:020000040800F2
:10000000100400209D010008F30D0008A10D000858
:10001000F10D0008A9020008C10E00080000000050
:10002000000000000000000000000000F70D0008C4
:10003000AB02000800000000F50D0008F90D0008F3
:10004000B7010008B7010008B7010008B7010008B0
:10005000B7010008B7010008B7010008B7010008A0
:10006000B7010008B7010008B7010008B701000890
:10007000B7010008B7010008B7010008B701000880
:10008000B7010008B7010008B7010008B701000870
:10009000B7010008B7010008B7010008B701000860
:1000A000B7010008B7010008B7010008B701000850
:1000B000B7010008B7010008B7010008B701000840
:1000C000B7010008B7010008B7010008B701000830
:1000D000B7010008B7010008B7010008B701000820
:1000E000B7010008B7010008B7010008B701000810
:1000F000B7010008B7010008B7010008B701000800
:10010000B7010008B7010008B7010008B7010008EF
:10011000B7010008B7010008B7010008B7010008DF
:10012000B7010008B7010008B7010008B7010008CF
:10013000B7010008B7010008B7010008B7010008BF
:10014000B7010008B7010008B7010008B7010008AF
:10015000B7010008B7010008B7010008B70100089F
:10016000B7010008B7010008B7010008B70100088F
:10017000B7010008B7010008B7010008000000003F
:10018000B7010008B7010008DFF80CD000F07AF8DA
:1001900000480047010F000810040020064880476F
:1001A00006480047FEE7FEE7FEE7FEE7FEE7FEE75C
:1001B000FEE7FEE7FEE7FEE76D0E00088901000896
:1001C0002DE9F05F0546002092469B46884606468C
:1001D000814640241BE0284641464746224600F01F
:1001E00041F853465A46C01A914110D31146184659
:1001F000224600F028F82D1A67EB01084F462246E8
:100200000120002100F01FF817EB00094E41201ECD
:10021000A4F10104DFDC484631462A464346BDE8E6
:10022000F09FD2B201E000F8012B491EFBD27047CB
:100230000022F6E710B513460A4604461946FFF7B2
:10024000F0FF204610BD202A04DB203A00FA02F11C
:10025000002070479140C2F1200320FA03F31943B4
:1002600090407047202A04DB203A21FA02F0002156
:10027000704721FA02F3D040C2F1200291400843B6
:1002800019467047064C074D06E0E06840F0010350
:1002900094E8070098471034AC42F6D3FFF778FF94
:1002A000C4120008E4120008FEE770472DE9F04789
:1002B000C24C0E46054601220821204600F06CFA89
:1002C00000221021204600F067FA0022202120465B
:1002D00000F062FA00224021204600F05DFA002280
:1002E0008021204600F058FA00220421204600F028
:1002F00053FA06EB8610B2490027A146C0EBC000B6
:1003000044180026C7F1060801221146484600F0AD
:1003100043FA15F80800C6F1060100EB80002044FE
:1003200010F8A00CC84000F001020221484600F07D
:1003300033FA00220121484600F02EFA761C072EDF
:10034000E2DB7F1C082FDCDB012204214E464846FD
:1003500000F022FA012000F035F900220821304691
:1003600000F01AFA01221021304600F015FA00229E
:100370002021304600F010FA00224021304600F0E3
:100380000BFA00228021304600F006FA00220421F8
:10039000304600F001FA0027B1460026C7F10608F2
:1003A00001221146484600F0F7F915F80800C6F199
:1003B000060100EB8000204410F89F0CC84000F0BC
:1003C00001020221484600F0E7F9002201214846D7
:1003D00000F0E2F9761C072EE2DB7F1C082FDCDB45
:1003E000012204214E46484600F0D6F9012000F0D3
:1003F000E9F800220821304600F0CEF90022102151
:10040000304600F0C9F901222021304600F0C4F93D
:1004100000224021304600F0BFF900228021304602
:1004200000F0BAF900220421304600F0B5F90027A7
:10043000B1460026C7F1060801221146484600F0E1
:10044000ABF915F80800C6F1060100EB8000204466
:1004500010F89E0CC84000F001020221484600F04E
:100460009BF900220121484600F096F9761C072EE0
:10047000E2DB7F1C082FDCDB012204214E464846CC
:1004800000F08AF9012000F09DF800220821304692
:1004900000F082F900221021304600F07DF90022A0
:1004A0002021304600F078F901224021304600F04A
:1004B00073F900228021304600F06EF900220421F9
:1004C000304600F069F90027B1460026C7F106085A
:1004D00001221146484600F05FF915F80800C6F100
:1004E000060100EB8000204410F89D0CC84000F08D
:1004F00001020221484600F04FF90022012148463E
:1005000000F04AF9761C072EE2DB7F1C082FDCDBAB
:10051000012204214E46484600F03EF9012000F039
:1005200051F800220821304600F036F9002210214F
:10053000304600F031F900222021304600F02CF93D
:1005400000224021304600F027F901228021304668
:1005500000F022F900220421304600F01DF90027A6
:10056000B1460026C7F1060801221146484600F0B0
:1005700013F915F80800C6F1060100EB80002044CD
:1005800010F89C0CC84000F001020221484600F01F
:1005900003F900220121484600F0FEF8761C072EE0
:1005A000E2DB7F1C082FDCDB01220421484600F03F
:1005B000F3F8BDE8F047012000F004B80000024065
:1005C000240F000870B5044600F0ECF80546601CE6
:1005D00002D004480078044400F0E4F8401BA04234
:1005E000FAD370BD000000202DE9F84FDFF87CB190
:1005F00000224FF001084FF0030A4FF00F090BF1F2
:10060000040E00BF0B6808FA02F42340A3426ED127
:100610004D68022D01D0122D0ED1D50800EB850CAE
:10062000DCF820505607F70E09FA07F6B5430E69B5
:10063000BE402E43CCF82060066855000F790AFAB8
:1006400005FC07F0030726EA0C06AF4037430760B6
:100650004E68012E05D0022E03D0112E01D0122E8D
:100660000ED18668CF6826EA0C06AF403743876014
:100670004668A6430C79C4F30014944034434460A4
:10068000C6688C6826EA0C06AC403443C4604C68EB
:10069000E40065D5364C256845F48045256024681E
:1006A00022F0030504F480440094324C2E19D6F84D
:1006B000084895072F0F09FA07F5AC432E4DA842BD
:1006C00001D1002524E02D4DA84201D101251FE0D4
:1006D0002B4DA84201D102251AE02A4DA84201D192
:1006E000032515E0284DA84202D1042510E037E08B
:1006F000264DA84201D105250AE0254DA84201D189
:10070000062505E0234DA84201D1072500E0082574
:10071000BD402543C6F80858DBF800405D464E68EA
:100720009C43F60300D51C432C60DEF80040754660
:100730004E689C43B60300D51C432C600B4D083516
:100740002C684E689C43F60200D51C432C60074D74
:100750000C352C684E689C43B60200D51C432C60B7
:10076000521C102AFFF44EAFBDE8F88F003C014048
:1007700044380240003001400000024000040240C2
:1007800000080240000C0240001002400014024029
:1007900000180240001C02400AB181617047090440
:1007A000FBE700000148806870470000000000205F
:1007B000024881680278114481607047000000207F
:1007C0000B4810B5016841F400710160016841F403
:1007D00080610160016841F480710160032000F0D4
:1007E00061F8002000F006F800F024F8002010BDA9
:1007F000003C024070B50D4D04464FF47A712878E4
:10080000B1FBF0F00A490968B1FBF0F000F0B4FA6E
:1008100048B9102C07D200222146501E00F022F8C1
:1008200000206C6070BD012070BD00000000002041
:100830000C0000200A4808B5016841F480410160BD
:10084000006800F4804000900548001F016841F0F6
:1008500080510160006800F08050009008BD0000E9
:1008600044380240F0B40E4B1B680C46C3F302231D
:10087000C3F10705042D00D90425191D072901D24C
:10088000002300E0DB1E012606FA05F1491E214087
:1008900099409E40761E16403143F0BC00F011BBDB
:1008A0000CED00E0064900F0070208684FF6FF0370
:1008B000184040EA0220034A1043086070470000D5
:1008C0000CED00E00000FA052DE9F0470E460500AA
:1008D00065D0DFF81481D8F80000F7B200F00F00FF
:1008E000B04207D288F80070D8F8000000F00F007E
:1008F000B04254D128683D4C810712D5400703D53A
:10090000206840F4E05020602878000703D5206874
:1009100040F4604020602068A96820F0F00008439F
:1009200020602878C0072DD0304968680839012830
:1009300012D0022813D0032811D009688907002992
:100940002DDA216821F0030101432160FFF72AFF1E
:10095000814641F2883A0EE009688903EFE70968A9
:100960008901ECE7FFF71EFFA0EB0901514502D911
:100970000320BDE8F0872068696800F00C00B0EB48
:10098000810FEFD1D8F80010404601F00F01B142BD
:1009900007D90770006800F00F00B04201D00120B5
:1009A000E7E72878400705D52068E96820F4E0509B
:1009B000084320602878000706D52068296920F4BC
:1009C000604040EAC100206000F016F82168084A43
:1009D000C1F30311515CC840064908600020FFF7CD
:1009E00009FF0020C5E70000003C02400838024033
:1009F000B21200080C000020154810B5006810F075
:100A00000C02144813D01449042A0FD0082A0ED11E
:100A10000F4C241F2268236802F03F025B0207D5B7
:100A20002068C0F38810A0FB010106E0084610BD55
:100A30002168C1F38811A1FB00010023FFF7C0FB6F
:100A40002168C1F30141491C4900B0FBF1F010BD20
:100A5000083802400024F40040787D012DE9F84F69
:100A6000050076D02878DFF8F8B2BE4CC00749D030
:100A7000DBF800105846C1F38101012908D0006855
:100A8000C0F3810002280AD1201D0068400206D56B
:100A90002068800336D568680028E2D032E06868B4
:100AA000B0F5803F10D0B0F5A02F206810D020F412
:100AB00080302060206820F4802020606868A0B129
:100AC000FFF770FE06460CE0206840F48030F4E743
:100AD00040F480202060F7E7FFF764FE801B642865
:100AE00073D820688003F7D50CE0FFF75BFE06465D
:100AF00005E000BFFFF756FE801B6428F0D8206891
:100B00008003F7D42878DFF8608280074FF000096F
:100B10003ED5DBF80010584611F00C0F09D00068E4
:100B2000C0F3810002280BD18D48001F00684002ED
:100B300006D42068800715D5E868012809D111E09E
:100B4000E868B8B10120C8F80000FFF72BFE0646A0
:100B500005E002E1FFF726FE801B0228C0D82068CE
:100B60008007F7D52068296920F0F80040EAC10025
:100B700020600DE0C8F80090FFF714FE064604E080
:100B8000FFF710FE801B02281FD820688007F7D4CB
:100B90002878000722D5724E744869696C3671B1A5
:100BA00001210160FFF7FEFD074604E0FFF7FAFDB3
:100BB000C01B022809D830688007F7D50EE0C0F8BE
:100BC0000090FFF7EFFD074605E083E0FFF7EAFD41
:100BD000C01B02287ED830688007F7D428784007E9
:100BE00068D5DFF87CA100270AF1380ADAF800009E
:100BF000C0000BD4DAF8001041F08051CAF80010A0
:100C0000DAF80000012700F080500090584E30685C
:100C1000C00510D4306840F480703060FFF7C2FD2A
:100C2000009005E0FFF7BEFD0099401A022851D858
:100C30003068C005F6D54A4EA868683601280FD03E
:100C40000528306810D020F001003060306820F0B6
:100C500004003060A868B8B1FFF7A4FD00900FE071
:100C6000306840F00100F4E740F004003060F7E73E
:100C7000FFF798FD0099411A41F28830814264D80B
:100C800030688007F4D50EE0FFF78CFD009007E098
:100C9000FFF788FD0099411A41F28830814254D80B
:100CA00030688007F4D42FB1DAF8001021F08051B9
:100CB000CAF80010A869C0B3DBF80010C1F38101C5
:100CC00002294AD00228484607D0C8F86000FFF73A
:100CD00069FD00E039E005463AE04746C8F86000A3
:100CE000FFF760FD064604E0FFF75CFD801B02286D
:100CF0002BD820688001F7D4D5E907010843A96AF9
:100D00001C4A490802EB01416A6A41EA8211084320
:100D100095F82C1040EA01611148001F0160012084
:100D20003866FFF73FFD054605E014E0FFF73AFDA2
:100D3000401B022809D820688001F7D50BE000BFCE
:100D4000FFF730FD401B022802D90320BDE8F88FD1
:100D500020688001F4D40020F8E70120F6E70000C5
:100D6000083802400038024000004742800E4742E7
:100D7000007000400000FFFF10B5401EB0F1807F02
:100D800001D3012010BD4FF0E02460610F216017F6
:100D900000F097F80020A06107202061002010BD1E
:100DA000FEE7000030B587B014216846FFF740FA2F
:100DB0000D48016841F00101016000680B4D00F031
:100DC000010040F2FF140590002221462846FFF75B
:100DD000E3FC0121CDE900410291039169462846D7
:100DE000FFF702FC07B030BD30380240000002407F
:100DF000FEE7704770477047FFF7DABC10B592B056
:100E000030216846FFF714FA14210CA8FFF710FAF6
:100E100014480024016841F080510160006800F02E
:100E2000805011901048016841F4804101600068D1
:100E3000069400F48040119002200090012003905D
:100E4000102004906846FFF709FE0F20CDE90C043E
:100E50000E940F9400210CA81094FFF735FD12B0EA
:100E600010BD00004038024000700040104801688A
:100E700041F4700101600F48016841F00101016017
:100E80000C4A00210832116002680B4B1A400260C4
:100E9000031D0A4A1A60026822F480220260054893
:100EA0000C30016002495806803908607047000024
:100EB00088ED00E000380240FFFFF6FE103000240D
:100EC000FEE70907090E002804DB00F1E02080F8A6
:100ED0000014704700F00F0000F1E02080F8141DAE
:100EE000704702E008C8121F08C1002AFAD17047F3
:100EF0007047002001E001C1121F002AFBD170479A
:100F0000FFF75EFCFFF77AFFFFF74CFF002102A01E
:100F1000FFF7CCF9FAE7000041424344453334205F
:100F200020000000000000000000005F0000010041
:100F30000001007C17147C1722457F4B3249370C87
:100F400072494F59677848000100000000003E4197
:100F50000000611E0000140C3E0C1408083E080836
:100F60004040000000080808080840400000004019
:100F7000300806013E5149453E0000027F004261B3
:100F80005149462141454B311814127F102F4545D8
:100F900045393E49494931010179050336494949F5
:100FA00036264949493E0000240000000044000064
:100FB0000814222241141414141441222214080784
:100FC000015109073E5D635F61601C131C607F492E
:100FD0004949763F414141227F4141413E7F494954
:100FE00049417F090909013E414151327F08080802
:100FF0007F00417F41002040413F017F080C32418A
:101000007F404040407F0C300C7F7F020C107F3EC1
:101010004141413E7F090909063E4141617E7F0908
:10102000093946464949493101017F01013F4040A4
:10103000403F031C601C031F601F601F41360836C1
:10104000410304780403615149454300007F0000D7
:10105000010608304000007F00000000000000088A
:1010600008080808000100000068545454787F48BC
:101070004444383844444448384444447F38545401
:101080005418047E45050578242454487F0404043C
:101090007804447D400000000405797F10102C4442
:1010A00000417F400078047C04047C080404783804
:1010B000444444387C44444438384444447C447C6C
:1010C000080404685454546C043C4444403C40407C
:1010D000447C0C3440340C3C601C601C442C102CB0
:1010E00044041C601C044464544C44000000000090
:1010F00000005F5F000000010100303E7E7E1000B6
:10110000477F79000F3F7F7270367F7F7A40000102
:1011100001000000007F7F000077770000141C1C96
:101120001C1408081C1C08004040000000080808A7
:1011300000004040000040783E07013E7F41413EB4
:1011400000067F7F006273796F6621614D7F331CDB
:10115000127F7F102667457D383E7F4D7D380171B7
:101160007F0F03367FC949360E5B797F1E00000072
:1011700000000000444400081C362200141414141B
:10118000140022361C080203090F063E7F5F7F3ED3
:101190007E7F09097E7F7F494F703E7F4163627F7A
:1011A0007F41413E7F7F4949417F7F0909013E7F61
:1011B0004153327F7F08087F417F7F410061417F3B
:1011C0007F017F7F1C36637F7F4040407F0F3C0F55
:1011D0007F7F7F04087F3E7F41413E7F7F090F066E
:1011E0003E7F41617E7F7F09794E666F497932018A
:1011F0007F7F01013F7F40403F7F7F300C033F787E
:101200001E783F71197F4C47070F780C07637349AD
:10121000456300007F7F00000E7E7000000000002C
:101220000000000000000808080808000101000094
:10123000687C7C7C403F7F447C38387C4444003868
:101240007C447F7F287C545C18047E7F0501787C79
:101250007C5C047F7F447C78007C7C000000007D07
:101260007D006F7F7C6C44007F7F00007C7C7C78FD
:10127000787C7C447C78387C447C383C7C447C386A
:10128000387C447C38047C7C0400007C7C54000462
:101290007C7C44003C7C447C78043C3C1C041C3C2E
:1012A0007C7C14446C7C7C04041C7C7C0400747C7A
:1012B0004C000000000000000000010203040607CB
:1012C00008090000E41200080000002010000000DF
:1012D000E20E0008F41200081000002000040000D4
:1012E000F20E0008010000001000000000000000E5
:0412F0000024F400E2
:040000050800018965
:00000001FF
