:020000040800F2
:10000000680500209D01000823140008D113000892
:1000100021140008790B00087D150008000000007D
:10002000000000000000000000000000B114000803
:10003000F10B00080000000025140008B3140008AC
:10004000B7010008B7010008B7010008B7010008B0
:10005000B7010008B7010008B7010008B7010008A0
:10006000B7010008B7010008B7010008B701000890
:10007000B7010008B7010008B7010008B701000880
:10008000B7010008B7010008B7010008B701000870
:10009000B7010008B7010008B7010008B701000860
:1000A000B7010008B7010008B7010008B701000850
:1000B000B7010008B7010008B7010008B701000840
:1000C000B7010008B7010008B7010008B701000830
:1000D000B7010008B7010008B7010008B701000820
:1000E000B7010008B7010008B7010008B701000810
:1000F000B7010008B7010008B7010008B701000800
:10010000B7010008B7010008B7010008B7010008EF
:10011000B7010008B7010008B7010008B7010008DF
:10012000B7010008B7010008B7010008B7010008CF
:10013000B7010008B7010008B7010008B7010008BF
:10014000B7010008B7010008B7010008B7010008AF
:10015000B7010008B7010008B7010008B70100089F
:10016000B7010008B7010008B7010008B70100088F
:10017000B7010008B7010008B7010008000000003F
:10018000B7010008B7010008DFF80CD000F090F8C4
:1001900000480047511900086805002006488047BC
:1001A00006480047FEE7FEE7FEE7FEE7FEE7FEE75C
:1001B000FEE7FEE7FEE7FEE72915000889010008D3
:1001C0002DE9F05F0546002092469B46884606468C
:1001D000814640241BE0284641464746224600F01F
:1001E00057F853465A46C01A914110D31146184643
:1001F000224600F03EF82D1A67EB01084F462246D2
:100200000120002100F035F817EB00094E41201EB7
:10021000A4F10104DFDC484631462A464346BDE8E6
:10022000F09FD2B201E000F8012B491EFBD27047CB
:100230000022F6E710B513460A4604461946FFF7B2
:10024000F0FF204610BD30B50B46014600202022AD
:10025000012409E021FA02F59D4205D303FA02F5D3
:10026000491B04FA02F52844151EA2F10102F1DC33
:1002700030BD202A04DB203A00FA02F1002070474A
:100280009140C2F1200320FA03F3194390407047D4
:10029000202A04DB203A21FA02F00021704721FADB
:1002A00002F3D040C2F12002914008431946704742
:1002B000064C074D06E0E06840F0010394E80700B3
:1002C00098471034AC42F6D3FFF762FF4C1D00088C
:1002D0006C1D00082DE9F74F02EB8212FC4B002148
:1002E000C2EBC202D418FB4B002202EB8206855CF3
:1002F0001E44203D05EB85050D44521C655D75547B
:10030000082AF2DB491C0529EEDBF24F0026503F9C
:100310009B4607F1F00900BF06EB8600D84600EBCC
:100320000801824638440D460446052201F002FBCE
:1003300008B10021F7E3019809281BD2DFE800F09B
:1003400005B2F5F4F3F2F1F0EF0059F82600494652
:100350000A2878D2DFE800F0050F131F354B6178CB
:100360008C9CDC49002050315144225C0A54401CD2
:100370000528FADBF3E3A07820F0080092E2607829
:1003800020F008006070A07820F01C00A070E078D9
:1003900020F00800AFE217F80A0020F0080107F883
:1003A0000A10607820F01C006070A07820F03E00F9
:1003B000A070E07820F01C00E070207920F00800A8
:1003C00080E317F80A0020F01C0107F80A10607893
:1003D00020F03E006070A87800F00800A070E0787F
:1003E00020F03E00E070207920F01C006AE317F84E
:1003F0000A0020F03E0107F80A10687800F00800B3
:100400006070A87800F01C00A070E87800F0080088
:10041000E070207920F03E0054E318F80A0000F064
:10042000080107F80A10687800F01C006070A878CE
:1004300000F03E00A070E87800F01C00E070287921
:1004400000F008003EE329E018F80A0000F01C0163
:1004500007F80A10687800F03E006070A878A07075
:10046000E87800F03E00E070287900F01C0029E3F5
:1004700018F80A0000F03E0107F80A10687860706A
:10048000A878A070E878E070287900F03E0019E3C1
:1004900000202A5C2254401C0528FADB002049F881
:1004A00026005CE359F826100F297DD2DFE801F021
:1004B0000812161E273E5B80A3CCF5F3F2F1F00084
:1004C0008449002050315144225C0A54401C0528C4
:1004D000FADB44E3207920F04000F3E2207920F0B9
:1004E00060002071E07820F0400004E2207920F0E4
:1004F00070002071E07820F06000E07063E1E17846
:10050000207921F07001E170A17820F0780021F0CD
:100510006001A170617821F04001617010E203E395
:10052000E9E2D1E2BCE2AAE298E21CE1207920F003
:100530007C002071E07820F07800E070A07820F056
:100540007000A070607820F06000607017F80A00FA
:1005500020F0400107F80A102979207901F06001A4
:1005600008432071C2E1207920F07E002071E078FC
:1005700020F07C00E070A07820F07800A070607817
:1005800020F07000607017F80A0020F0600107F892
:100590000A102979207901F0700108432071E97867
:1005A000E07801F0600100E051E10843E07074E19F
:1005B000E07820F07E00E070A07820F07C00A07051
:1005C000607820F07800607017F80A0020F0700161
:1005D00007F80A10287900F078002071E978E078AF
:1005E00001F070010843E070A978A07801F0600183
:1005F0000843A07024E1A07820F07E00A07060780D
:1006000020F07C00607017F80A0020F0780107F8ED
:100610000A10297901F07C012171E97801F0780153
:10062000E170AA78A17802F070021143A1706A7893
:10063000617802F060021143617018F80A0017F83F
:100640000A1000F0400021E0607820F07E00607029
:1006500017F80A0020F07C0107F80A10297901F048
:100660007E012171E97801F07C01E170A97801F047
:100670007801A1706A78617802F0700211436170AC
:1006800018F80A0017F80A1000F0600001432BE286
:100690005EE04EE03AE01FE0FFE717F80A0020F0C6
:1006A0007E0107F80A1029792171E97801F07E01AD
:1006B000E170A97801F07C01A170697801F07801FE
:1006C000617018F80A0017F80A2000F0700019E0AD
:1006D000AC1900086000002029792171E978E170E7
:1006E000AA78A17802F07E021143A1706A7861783D
:1006F00002F07C021143617018F80A0017F80A2012
:1007000000F07800024307F80A2028E229792171D5
:10071000E978E170A978A1706A78617802F07E02C8
:100720001143617018F80A0017F80A1000F07C00F5
:10073000ACE729792171E978E170A978A17069782D
:10074000617018F80A0017F80A1000F07E009DE7A3
:1007500029792171E978E170A978A17069786170CF
:1007600018F80A10C0E159F826100F296FD2DFE8F7
:1007700001F0081116202E486F9BC4F2F0EFEEED49
:10078000EC00FC4900205144225C0A54401C05281E
:10079000FADBE4E117F80A0020F04001A4E117F8C1
:1007A0000A0020F0600107F80A10607820F040008D
:1007B0004BE017F80A0020F0700107F80A10607883
:1007C00020F060006070A07820F040006AE017F828
:1007D0000A0020F0780107F80A10607820F0700015
:1007E0006070A07820F06000A070E07820F04000F9
:1007F000E07018F80A1017F80A0001F040010843E9
:1008000076E117F80A0020F07C0107F80A106078FA
:1008100020F078006070A07820F07000A070E07880
:1008200020F06000E070207920F04000207118F87E
:100830000A0017F80A1000F06000014307F80A10D8
:100840006978607801F040010843607087E101E158
:1008500017F80A0020F07E0107F80A10607820F0EF
:100860007C006070A07820F07800A070E07820F024
:100870007000E070207920F06000207118F80A0004
:1008800017F80A1000F07000014307F80A106978A1
:10089000607801F0600108436070A978A07801F0E9
:1008A00040010843A0705AE1607820F07E0060703B
:1008B000A07820F07C00A070E07820F07800E07054
:1008C000207920F07000207118F80A0000F07801FB
:1008D00007F80A106978607801F0700108436070C9
:1008E000A978A07801F060010843A070E978E07869
:1008F00001F040010843E07031E1A07820F07E0073
:10090000A070E07820F07C00E070207920F0780082
:10091000207118F80A0000F07C0107F80A106878C6
:1009200000F078006070A978A07801F070010843A9
:10093000A070E978E07801F060010843E070207968
:10094000297901F040010843BCE077E067E053E01B
:100950003BE021E0FFE7E07820F07E00E0702079C6
:1009600020F07C00207118F80A0000F07E0107F8E2
:100970000A10687800F07C006070A87800F07800B9
:10098000A070E978E07801F070010843E0702979FF
:10099000207901F06001D6E7207920F07E002071F7
:1009A00018F80A1007F80A10687800F07E006070E6
:1009B000A87800F07C00A070E87800F07800E07083
:1009C0002979207901F07001BDE718F80A1007F8BD
:1009D0000A1068786070A978A07801F07E01084359
:1009E000A070E978E07801F07C010843E070297993
:1009F000207901F07801A6E718F80A1007F80A1024
:100A000068786070A878A070E978E07801F07E01DD
:100A10000843E0702979207901F07C0193E718F808
:100A20000A1007F80A1068786070A878A070E87853
:100A3000E0702979207901F07E0184E718F80A1026
:100A400007F80A1068786070A878A070E878E070FD
:100A5000287937E0002149F8261080E059F826105F
:100A60000020C1F107022B5C215CD34003F001039D
:100A700043EA41032354401C0528F4DB6FE059F896
:100A800026100020C1F107022B5C215C934003F08B
:100A9000800343EA51032354401C0528F4DB5EE045
:100AA0000020211849782154401C0428F9DB59F80A
:100AB0002600002805DD00EB0801AAF10100085C12
:100AC00000E0002020714AE00420211811F8011CE8
:100AD0002154401E0028F8DC59F82600002806DDC5
:100AE000C0F104002844417807F80A1037E00020DC
:100AF00007F80A0033E059F82610002081420EDB87
:100B00000B1A072B0BDC15F800C0C3F10703225C9E
:100B10002CFA03FC0CF0010343EA42032354401C6B
:100B20000528EBDB1BE01DE059F82620002082425F
:100B300012DBA2EB000CBCF1070F0DDCC0F10403CB
:100B4000CCF1070C15F80380E15C28FA0CF808F0EA
:100B5000010C4CEA4101E154401C0528E7DB59F83F
:100B60002610491C49F82610761C082EFFF6D4AB37
:100B7000BDE8FE8FB0000020FEE7000070B51B4D01
:100B8000044600220821284600F01EF90022102108
:100B9000284600F019F900222021284600F014F917
:100BA00000224021284600F00FF90022802128462B
:100BB00000F00AF9052C17D2DFE804F00306090C4F
:100BC0000F00012208210AE00122102107E0012282
:100BD000202104E00122402101E001228021284659
:100BE000BDE8704000F0F0B870BD000000000240A9
:100BF0007047000070B5044600F0ECF80546601C34
:100C000002D004480078044400F0E4F8401BA042FD
:100C1000FAD370BD000000202DE9F84FDFF87CB159
:100C200000224FF001084FF0030A4FF00F090BF1BB
:100C3000040E00BF0B6808FA02F42340A3426ED1F1
:100C40004D68022D01D0122D0ED1D50800EB850C78
:100C5000DCF820505607F70E09FA07F6B5430E697F
:100C6000BE402E43CCF82060066855000F790AFA82
:100C700005FC07F0030726EA0C06AF403743076080
:100C80004E68012E05D0022E03D0112E01D0122E57
:100C90000ED18668CF6826EA0C06AF4037438760DE
:100CA0004668A6430C79C4F300149440344344606E
:100CB000C6688C6826EA0C06AC403443C4604C68B5
:100CC000E40065D5364C256845F4804525602468E8
:100CD00022F0030504F480440094324C2E19D6F817
:100CE000084895072F0F09FA07F5AC432E4DA84287
:100CF00001D1002524E02D4DA84201D101251FE09E
:100D00002B4DA84201D102251AE02A4DA84201D15B
:100D1000032515E0284DA84202D1042510E037E054
:100D2000264DA84201D105250AE0254DA84201D152
:100D3000062505E0234DA84201D1072500E008253E
:100D4000BD402543C6F80858DBF800405D464E68B4
:100D50009C43F60300D51C432C60DEF8004075462A
:100D60004E689C43B60300D51C432C600B4D0835E0
:100D70002C684E689C43F60200D51C432C60074D3E
:100D80000C352C684E689C43B60200D51C432C6081
:100D9000521C102AFFF44EAFBDE8F88F003C014012
:100DA000443802400030014000000240000402408C
:100DB00000080240000C02400010024000140240F3
:100DC00000180240001C02400AB18161704709040A
:100DD000FBE7000001488068704700000000002029
:100DE0000248816802781144816070470000002049
:100DF0000B4810B5016841F400710160016841F4CD
:100E000080610160016841F480710160032000F09D
:100E100061F8002000F006F800F024F8002010BD72
:100E2000003C024070B50D4D04464FF47A712878AD
:100E3000B1FBF0F00A490968B1FBF0F000F0B4FA38
:100E400048B9102C07D200222146501E00F022F88B
:100E500000206C6070BD012070BD0000000000200B
:100E60000C0000200A4808B5016841F48041016087
:100E7000006800F4804000900548001F016841F0C0
:100E800080510160006800F08050009008BD0000B3
:100E900044380240F0B40E4B1B680C46C3F30223E7
:100EA000C3F10705042D00D90425191D072901D216
:100EB000002300E0DB1E012606FA05F1491E214051
:100EC00099409E40761E16403143F0BC00F06CBB4A
:100ED0000CED00E0064900F0070208684FF6FF033A
:100EE000184040EA0220034A10430860704700009F
:100EF0000CED00E00000FA052DE9F0470E46050074
:100F000065D0DFF81481D8F80000F7B200F00F00C8
:100F1000B04207D288F80070D8F8000000F00F0047
:100F2000B04254D128683D4C810712D5400703D503
:100F3000206840F4E05020602878000703D520683E
:100F400040F4604020602068A96820F0F000084369
:100F500020602878C0072DD03049686808390128FA
:100F600012D0022813D0032811D00968890700295C
:100F70002DDA216821F0030101432160FFF72AFFE8
:100F8000814641F2883A0EE009688903EFE7096873
:100F90008901ECE7FFF71EFFA0EB0901514502D9DB
:100FA0000320BDE8F0872068696800F00C00B0EB12
:100FB000810FEFD1D8F80010404601F00F01B14287
:100FC00007D90770006800F00F00B04201D001207F
:100FD000E7E72878400705D52068E96820F4E05065
:100FE000084320602878000706D52068296920F486
:100FF000604040EAC100206000F016F82168084A0D
:10100000C1F30311515CC840064908600020FFF796
:1010100009FF0020C5E70000003C024008380240FC
:101020003A1D00080C000020154810B5006810F0AB
:101030000C02144813D01449042A0FD0082A0ED1E8
:101040000F4C241F2268236802F03F025B0207D581
:101050002068C0F38810A0FB010106E0084610BD1F
:101060002168C1F38811A1FB00010023FFF7A8F854
:101070002168C1F30141491C4900B0FBF1F010BDEA
:10108000083802400024F40040787D012DE9F84F33
:10109000050076D02878DFF8F8B2BE4CC00749D0FA
:1010A000DBF800105846C1F38101012908D000681F
:1010B000C0F3810002280AD1201D0068400206D535
:1010C0002068800336D568680028E2D032E068687E
:1010D000B0F5803F10D0B0F5A02F206810D020F4DC
:1010E00080302060206820F4802020606868A0B1F3
:1010F000FFF770FE06460CE0206840F48030F4E70D
:1011000040F480202060F7E7FFF764FE801B64282E
:1011100073D820688003F7D50CE0FFF75BFE064626
:1011200005E000BFFFF756FE801B6428F0D820685A
:101130008003F7D42878DFF8608280074FF0000939
:101140003ED5DBF80010584611F00C0F09D00068AE
:10115000C0F3810002280BD18D48001F00684002B7
:1011600006D42068800715D5E868012809D111E068
:10117000E868B8B10120C8F80000FFF72BFE06466A
:1011800005E002E1FFF726FE801B0228C0D8206898
:101190008007F7D52068296920F0F80040EAC100EF
:1011A00020600DE0C8F80090FFF714FE064604E04A
:1011B000FFF710FE801B02281FD820688007F7D495
:1011C0002878000722D5724E744869696C3671B16F
:1011D00001210160FFF7FEFD074604E0FFF7FAFD7D
:1011E000C01B022809D830688007F7D50EE0C0F888
:1011F0000090FFF7EFFD074605E083E0FFF7EAFD0B
:10120000C01B02287ED830688007F7D428784007B2
:1012100068D5DFF87CA100270AF1380ADAF8000067
:10122000C0000BD4DAF8001041F08051CAF8001069
:10123000DAF80000012700F080500090584E306826
:10124000C00510D4306840F480703060FFF7C2FDF4
:10125000009005E0FFF7BEFD0099401A022851D822
:101260003068C005F6D54A4EA868683601280FD008
:101270000528306810D020F001003060306820F080
:1012800004003060A868B8B1FFF7A4FD00900FE03B
:10129000306840F00100F4E740F004003060F7E708
:1012A000FFF798FD0099411A41F28830814264D8D5
:1012B00030688007F4D50EE0FFF78CFD009007E062
:1012C000FFF788FD0099411A41F28830814254D8D5
:1012D00030688007F4D42FB1DAF8001021F0805183
:1012E000CAF80010A869C0B3DBF80010C1F381018F
:1012F00002294AD00228484607D0C8F86000FFF704
:1013000069FD00E039E005463AE04746C8F860006C
:10131000FFF760FD064604E0FFF75CFD801B022836
:101320002BD820688001F7D4D5E907010843A96AC2
:101330001C4A490802EB01416A6A41EA82110843EA
:1013400095F82C1040EA01611148001F016001204E
:101350003866FFF73FFD054605E014E0FFF73AFD6C
:10136000401B022809D820688001F7D50BE000BF98
:10137000FFF730FD401B022802D90320BDE8F88F9B
:1013800020688001F4D40020F8E70120F6E700008F
:10139000083802400038024000004742800E4742B1
:1013A000007000400000FFFF10B5401EB0F1807FCC
:1013B00001D3012010BD4FF0E02460610F216017C0
:1013C00000F0F2F80020A06107202061002010BD8D
:1013D000FEE7000030B587B014216846FEF728FF0D
:1013E0000D48016841F00101016000680B4D00F0FB
:1013F000010040F2FF140590002221462846FFF725
:10140000E3FC0121CDE900410291039169462846A0
:10141000FFF702FC07B030BD303802400000024048
:10142000FEE77047704700002DE9F047DFF878903D
:10143000DFF8788000242046FFF7A0FB002204217B
:1014400046464046FFF7C0FC0025B046C5F1070000
:1014500000EB8001002601EB0907012211464046FE
:10146000FFF7B2FC385DC6F10601C84000F001028A
:1014700002214046FFF7A8FC002201214046FFF769
:10148000A3FC761C072EE8DB6D1C082DDEDB012299
:1014900004214046FFF798FC0120FFF7ABFB641CDA
:1014A000052CC8DBBDE8F0871000002000000240DA
:1014B0007047FFF795BC000010B592B03021684628
:1014C000FEF7B6FE14210CA8FEF7B2FE1448002465
:1014D000016841F080510160006800F08050119077
:1014E0001048016841F4804101600068069400F4EE
:1014F0008040119002200090012003901020049061
:101500006846FFF7C3FD0F20CDE90C040E940F943D
:1015100000210CA81094FFF7EFFC12B010BD0000E2
:1015200040380240007000401048016841F47001EA
:1015300001600F48016841F0010101600C4A00217F
:101540000832116002680B4B1A400260031D0A4A00
:101550001A60026822F48022026005480C300160A3
:1015600002495806803908607047000088ED00E0A5
:1015700000380240FFFFF6FE10300024FEE70000B6
:101580000FB4084B10B504A902AA039800F02CF878
:10159000044602A9002000F0C8F9204610BC5DF8FE
:1015A00014FB00002B1900080907090E002804DBB2
:1015B00000F1E02080F80014704700F00F0000F107
:1015C000E02080F8141D704702E008C8121F08C10F
:1015D000002AFAD170477047002001E001C1121FB4
:1015E000002AFBD1704700002DE9FF4F8BB08846E1
:1015F0000546002606E025280BD0DDE90D129047B0
:101600006D1C761C28780028F5D10FB03046BDE857
:10161000F08F0024A146A2460122AE4900E0044317
:1016200015F8013F203B02FA03F00842F7D1287871
:101630002A2810D06FF02F022878A0F13001092954
:1016400015D809EB890102EB410144F0020400EBDB
:1016500001096D1CF0E758F8041B5FEA010903D586
:1016600044F40054C9F1000944F002046D1C2878C8
:101670002E2817D115F8010F44F004042A280ED0A3
:101680006FF02F022878A0F1300109290AD80AEB5F
:101690008A0102EB410100EB010A6D1CF2E758F8E8
:1016A00004AB6D1C28786C280FD006DC4C2817D0B2
:1016B00068280DD06A2814D104E0742810D07A2844
:1016C0000FD10DE044F400140AE044F4801401E06A
:1016D00044F440146978814202D104F580146D1CF1
:1016E0006D1C2878692865D006DC00288DD0632819
:1016F00027D0642806D15DE06E2808D073282AD050
:10170000752877D0DDE90D129047761CE0E0C4F330
:101710000250022809D003280DD0D8F80010042860
:101720000DD00E6008F10408D2E0D8F80010F217CE
:10173000C1E90062F6E7D8F800100E80F2E70E70FB
:10174000F0E718F8041B8DF8001000208DF8010058
:10175000EB46012003E058F804BB4FF0FF3061076F
:101760004FF0000701D40AE07F1C57450DDA87428D
:10177000FADB1BF807100029F6D106E07F1C874230
:10178000FCDB1BF807100029F8D1DDE90D23A9EBDC
:1017900007008146214600F0B1F83044C61904E044
:1017A000DDE90D121BF8010B90477F1EF8D2214690
:1017B000484688E058F8040BC4F302514FF00A0B76
:1017C000032900D100B2042900D140B2002802DA76
:1017D00040422D2102E0210505D52B218DF8241052
:1017E000012104E006E0E10710D02021F6E708AF70
:1017F000089113E058F8040BC4F302514FF00A0BA0
:10180000032900D180B2042900D1C0B20021EEE743
:101810005946FEF718FD303107F8011D0028F7D1B1
:10182000ADEB070000F1200B600702D524F48034F3
:1018300001E04FF0010ADA4502DDAAEB0B0000E0FF
:101840000020824600EB0B0108980144A9EB01003F
:101850000A90E00306D4DDE90D2321460A9800F042
:101860004DF806444FF0000908E009A911F80900F5
:10187000DDE90D12904709F10109761C08998945A7
:10188000F3DBE0030CD5DDE90D2321460A9800F0D7
:1018900035F8064404E0DDE90D1230209047761C4F
:1018A000BAF10001AAF1010AF5DC05E0DDE90D124B
:1018B00017F8010B9047761CBBF10001ABF1010B4F
:1018C000F4DC0A982146DDE90D2300F005F8064412
:1018D0006D1C97E6092801002DE9F041044600251A
:1018E0001E461746880404D405E039462020B04738
:1018F0006D1C641EF9D52846BDE8F0812DE9F04144
:10190000044600251E469046C80301D5302700E056
:101910002027880404D505E041463846B0476D1CB1
:10192000641EF9D52846BDE8F0810A68531C0B6097
:101930001070704730B5002306E0C45CCD5CAC424B
:1019400001D0002030BD5B1C9342F6DB012030BD8E
:101950000024FFF74DFAFFF7AFFDFFF73BFD14251D
:101960005FF0C80694FBF5F20DA10F48FFF708FEE3
:1019700094FBF6F000EBD07121F00101421A07212F
:101980000948FEF7A7FC641CFFF74EFDFFF74CFD6E
:10199000FFF74AFDFFF748FDFFF746FDE2E70000CD
:1019A0002054253036640000500100200000000063
:1019B0000000005F000001000001007C17147C178C
:1019C00022457F4B3249370C72494F59677848009E
:1019D0000100000000003E410000611E0000140CE8
:1019E0003E0C1408083E08084040000000080808A3
:1019F0000808404000000040300806013E514945BB
:101A00003E0000027F0042615149462141454B3171
:101A10001814127F102F454545393E494949310177
:101A2000017905033649494936264949493E0000AE
:101A30002400000000440000081422224114141461
:101A40001414412222140807015109073E5D635F07
:101A500061601C131C607F494949763F4141412226
:101A60007F4141413E7F494949417F090909013E82
:101A7000414151327F0808087F00417F41002040EA
:101A8000413F017F080C32417F404040407F0C3095
:101A90000C7F7F020C107F3E4141413E7F090909C6
:101AA000063E4141617E7F0909394646494949312F
:101AB00001017F01013F4040403F031C601C031FA8
:101AC000601F601F413608364103047804036151EA
:101AD00049454300007F0000010608304000007FB8
:101AE00000000000000000080808080800010000CD
:101AF0000068545454787F48444438384444444837
:101B0000384444447F3854545418047E45050578BD
:101B1000242454487F0404047804447D40000000D9
:101B20000405797F10102C4400417F400078047C2C
:101B300004047C0804047838444444387C44444415
:101B400038384444447C447C080404685454546C3D
:101B5000043C4444403C4040447C0C3440340C3C05
:101B6000601C601C442C102C44041C601C04446445
:101B7000544C44000000000000005F5F00000001C2
:101B80000100303E7E7E1000477F79000F3F7F725C
:101B900070367F7F7A40000101000000007F7F00E7
:101BA0000077770000141C1C1C1408081C1C08007B
:101BB0004040000000080808000040400000407855
:101BC0003E07013E7F41413E00067F7F0062737900
:101BD0006F6621614D7F331C127F7F102667457D24
:101BE000383E7F4D7D3801717F0F03367FC94936FE
:101BF0000E5B797F1E0000000000000044440008D6
:101C00001C36220014141414140022361C0802037B
:101C1000090F063E7F5F7F3E7E7F09097E7F7F49F9
:101C20004F703E7F4163627F7F41413E7F7F4949E4
:101C3000417F7F0909013E7F4153327F7F08087F42
:101C4000417F7F410061417F7F017F7F1C36637F41
:101C50007F4040407F0F3C0F7F7F7F04087F3E7FA7
:101C600041413E7F7F090F063E7F41617E7F7F09B4
:101C7000794E666F497932017F7F01013F7F404095
:101C80003F7F7F300C033F781E783F71197F4C47B0
:101C9000070F780C07637349456300007F7F0000DE
:101CA0000E7E700000000000000000000000080828
:101CB0000808080001010000687C7C7C403F7F44EC
:101CC0007C38387C444400387C447F7F287C545CDA
:101CD00018047E7F0501787C7C5C047F7F447C78DF
:101CE000007C7C000000007D7D006F7F7C6C4400E8
:101CF0007F7F00007C7C7C78787C7C447C78387C9E
:101D0000447C383C7C447C38387C447C38047C7C83
:101D10000400007C7C5400047C7C44003C7C447CBB
:101D200078043C3C1C041C3C7C7C14446C7C7C048F
:101D3000041C7C7C0400747C4C000000000000004B
:101D40000000010203040607080900006C1D0008DA
:101D50000000002010000000C81500087C1D0008CD
:101D60001000002058050000D815000801000000F0
:0C1D700010000000000000000024F4003F
:040000050800018965
:00000001FF
